:100000000C942C070C9473070C9473070C947307CF
:100010000C9473070C9473070C9473070C94730778
:100020000C9473070C9473070C94E3210C94B62280
:100030000C94F0180C9473070C9473070C947307CA
:100040000C9473070C9473070C9473070C94730748
:100050000C9473070C9451190C9473070C94730748
:100060000C9473070C9473070C9473070C94730728
:100070000C9473070C9473070C9473070C94730718
:100080000C9473070C9473070C9473070C94730708
:100090000C9473070C9473070C9473070C947307F8
:1000A0000C9473070C9473070C94730729003A009F
:1000B0003B003C003D003E003F004000410042004C
:1000C00043004400450000000000490035001E00C8
:1000D0001F0020002100220023002400250026000C
:1000E00027002D002E0000002A004A002B000000EF
:1000F00014001A000800150017001C0018000C005E
:10010000120013002F00300031004B0039000000B6
:1001100004001600070009000A000B000D000E0085
:100120000F0033003400280000004E000000E10002
:100130001D001B000600190005001100100036000C
:10014000370038000000E10000004D00E000E3004F
:100150000000E200000000002C0000000000000091
:10016000E2000000E00000000000000001000100CB
:100170000100010001000100010001000100010077
:100180000100010001000100010001000100010067
:100190000100010001000100010001000100010057
:1001A0000100010001000000010001000100000049
:1001B0000100010001000100010001000100010037
:1001C0000100010001000100010001000100000028
:1001D0000100010001000100010001000100010017
:1001E0000100010001000100000001000000010009
:1001F00001000100010001000100010001000100F7
:1002000001000100000001000100010001000100E7
:1002100000000100000000000100000000000000DC
:1002200001000100010001000100010001000100C6
:1002300001000100010001000100010001000100B6
:1002400001000100010001000100010001000100A6
:100250000100010001000100010001000100010096
:100260000100010001000000010001000100000088
:100270000100010001000100010001000100010076
:100280000100010001000100010001000100000067
:100290000100010001000100010001000100010056
:1002A0000100010001000100000001000000010048
:1002B0000100010001000100010001000100010036
:1002C0000100010000000100010001000100010027
:1002D000000001000000000001000000000000001C
:1002E0000100010001000100010001000100010006
:1002F00001000100010001000100010001000100F6
:1003000001000100010001000100010001000100E5
:1003100001000100010001000100010001000100D5
:1003200001000100010000000100010001000000C7
:1003300001000100010001000100010001000100B5
:1003400001000100010001000100010001000000A6
:100350000100010001000100010001000100010095
:100360000100010001000100000001000000010087
:100370000100010001000100010001000100010075
:100380000100010000000100010001000100010066
:10039000000001000000000001000000000000005B
:1003A0000100010001000100010001000100010045
:1003B0000100010001000100010001000100010035
:1003C0000100010001000100010001000100010025
:1003D0000100010001000100010001000100010015
:1003E0000100010001000000010001000100000007
:1003F00001000100010001000100010001000100F5
:1004000001000100010001000100010001000000E5
:1004100001000100010001000100010001000100D4
:1004200001000100010001000000010000000100C6
:1004300001000100010001000100010001000100B4
:1004400001000100000001000100010001000100A5
:10045000000001000000000001000000000000009A
:100460000100010001000100010001000100010084
:100470000100010001000100010001000100010074
:100480000100010001000100010001000100010064
:100490000100010001000100010001000100010054
:1004A0000100010001000000010001000100000046
:1004B0000100010001000100010001000100010034
:1004C0000100010001000100010001000100000025
:1004D0000100010001000100010001000100010014
:1004E0000100010001000100000001000000010006
:1004F00001000100010001000100010001000100F4
:1005000001000100000001000100010001000100E4
:1005100000000100000000000100000000000000D9
:1005200001000100010001000100010001000100C3
:1005300001000100010001000100010001000100B3
:1005400001000100010001000100010001000100A3
:100550000100010001000100010001000100010093
:100560000100010001000000010001000100000085
:100570000100010001000100010001000100010073
:100580000100010001000100010001000100000064
:100590000100010001000100010001000100010053
:1005A0000100010001000100000001000000010045
:1005B0000100010001000100010001000100010033
:1005C0000100010000000100010001000100010024
:1005D0000000010000000000010000000000000019
:1005E0000100010001000100010001000100010003
:1005F00001000100010001000100010001000100F3
:1006000001000100010001000100010001000100E2
:1006100001000100010001000100010001000100D2
:1006200001000100010000000100010001000000C4
:1006300001000100010001000100010001000100B2
:1006400001000100010001000100010001000000A3
:100650000100010001000100010001000100010092
:100660000100010001000100000001000000010084
:100670000100010001000100010001000100010072
:100680000100010000000100010001000100010063
:100690000000010000000000010000000000000058
:1006A0000100010001000100010001000100010042
:1006B0000100010001000100010001000100010032
:1006C0000100010001000100010001000100010022
:1006D0000100010001000100010001000100010012
:1006E0000100010001000000010001000100000004
:1006F00001000100010001000100010001000100F2
:1007000001000100010001000100010001000000E2
:1007100001000100010001000100010001000100D1
:1007200001000100010001000000010000000100C3
:1007300001000100010001000100010001000100B1
:1007400001000100000001000100010001000100A2
:100750000000010000000000010000000000000097
:100760000100010001000100010001000100010081
:100770000100010001000100010001000100010071
:100780000100010001000100010001000100010061
:100790000100010001000100010001000100010051
:1007A0000100010001000000010001000100000043
:1007B0000100010001000100010001000100010031
:1007C0000100010001000100010001000100000022
:1007D0000100010001000100010001000100010011
:1007E0000100010001000100000001000000010003
:1007F00001000100010001000100010001000100F1
:1008000001000100000001000100010001000100E1
:1008100000000100000000000100000000000000D6
:1008200001000100010001000100010001000100C0
:1008300001000100010001000100010001000100B0
:1008400001000100010001000100010001000100A0
:100850000100010001000100010001000100010090
:100860000100010001000000010001000100000082
:100870000100010001000100010001000100010070
:100880000100010001000100010001000100000061
:100890000100010001000100010001000100010050
:1008A0000100010001000100000001000000010042
:1008B0000100010001000100010001000100010030
:1008C0000100010000000100010001000100010021
:1008D0000000010000000000010000000000000016
:1008E0000100010001000100010001000100010000
:1008F00001000100010001000100010001000100F0
:1009000001000100010001000100010001000100DF
:1009100001000100010001000100010001000100CF
:1009200001000100010000000100010001000000C1
:1009300001000100010001000100010001000100AF
:1009400001000100010001000100010001000000A0
:10095000010001000100010001000100010001008F
:100960000100010001000100000001000000010081
:10097000010001000100010001000100010001006F
:100980000100010000000100010001000100010060
:100990000000010000000000010000000000000055
:1009A000010001000100010001000100010001003F
:1009B000010001000100010001000100010001002F
:1009C000010001000100010001000100010001001F
:1009D000010001000100010001000100010001000F
:1009E0000100010001000000010001000100000001
:1009F00001000100010001000100010001000100EF
:100A000001000100010001000100010001000000DF
:100A100001000100010001000100010001000100CE
:100A200001000100010001000000010000000100C0
:100A300001000100010001000100010001000100AE
:100A4000010001000000010001000100010001009F
:100A50000000010000000000010000000000000094
:100A6000010001000100010001000100010001007E
:100A7000010001000100010001000100010001006E
:100A8000010001000100010001000100010001005E
:100A9000010001000100010001000100010001004E
:100AA0000100010001000000010001000100000040
:100AB000010001000100010001000100010001002E
:100AC000010001000100010001000100010000001F
:100AD000010001000100010001000100010001000E
:100AE0000100010001000100000001000000010000
:100AF00001000100010001000100010001000100EE
:100B000001000100000001000100010001000100DE
:100B100000000100000000000100000000000000D3
:100B200001000100010001000100010001000100BD
:100B300001000100010001000100010001000100AD
:100B4000010001000100010001000100010001009D
:100B5000010001000100010001000100010001008D
:100B6000010001000100000001000100010000007F
:100B7000010001000100010001000100010001006D
:100B8000010001000100010001000100010000005E
:100B9000010001000100010001000100010001004D
:100BA000010001000100010000000100000001003F
:100BB000010001000100010001000100010001002D
:100BC000010001000000010001000100010001001E
:100BD0000000010000000000010000000000000013
:100BE00001000100010001000100010001000100FD
:100BF00001000100010001000100010001000100ED
:100C000001000100010001000100010001000100DC
:100C100001000100010001000100010001000100CC
:100C200001000100010000000100010001000000BE
:100C300001000100010001000100010001000100AC
:100C4000010001000100010001000100010000009D
:100C5000010001000100010001000100010001008C
:100C6000010001000100010000000100000001007E
:100C7000010001000100010001000100010001006C
:100C8000010001000000010001000100010001005D
:100C90000000010000000000010000000000000052
:100CA00001000100010001000100010012036B00BE
:100CB0006500790062006F0061007200640000004E
:100CC000160371006D006B006200750069006C0016
:100CD00064006500720000000403090409026D004D
:100CE000040100A0FA090400000103010100092128
:100CF000110100012240000705810308000A0904D0
:100D000001000103010200092111010001224D002F
:100D10000705820308000A0904020001030000001D
:100D20000921110100012236000705830308000A8A
:100D30000904030001030000000921110100012240
:100D40003900070584032000011201100100000092
:100D500008EDFE606001000102000105010906A125
:100D600001050719E029E71500250195087501819E
:100D7000020508190129059505750191029501756E
:100D80000391010507190029F71500250195F8754C
:100D9000018102C005010980A1018502160100261A
:100DA00003001A81002A8300751095018100C00597
:100DB0000C0901A1018503160100269C021A0100FD
:100DC0002A9C02751095018100C005010902A1014C
:100DD0000901A1000509190129051500250195053D
:100DE0007501810295017503810105010930093101
:100DF0001581257F95027508810609381581257FA3
:100E0000950175088106050C0A38021581257F9524
:100E10000175088106C0C005010906A10105071971
:100E2000E029E715002501950875018102950175F6
:100E3000088101050819012905950575019102959B
:100E400001750391010507190029FF150026FF0010
:100E5000950675088100C00011241FBECFEFDAE0AF
:100E6000DEBFCDBF04B603FE27C080916002909123
:100E70006102A0916202B09163028730904BA7405B
:100E8000B04BD1F410926002109261021092620293
:100E90001092630214BE84B7877F84BF0FB6F894A4
:100EA000A895809160008861809360001092600036
:100EB0000FBEE0E0F8E3099511E0A0E0B1E0E6E460
:100EC000FCE402C005900D92AE33B107D9F722E0E1
:100ED000AEE3B1E001C01D92A036B207E1F70E9477
:100EE000391F0C94F5250C94000090E080E00895E3
:100EF0000895089581E00895089581E008950C947F
:100F00007A070E9444112FEF84E39CE02150804037
:100F10009040E1F700C000000C947419EF92FF922A
:100F20000F931F93CF93DF938C01FC01E080F1803E
:100F300080917E01811140C082818823C1F1C70167
:100F40000E94C616C82F682FC7010E947216B701EB
:100F50008C2F0E94C608EC01B8010E947F078823ED
:100F600009F44BC0B801CE010E94D00A882309F4CD
:100F700044C0C531F0E7DF0720F5C23080E7D8076D
:100F800008F04DC0C115E0E7DE0791F1C130D04750
:100F9000E1F181E08093400180934101C801DF913C
:100FA000CF911F910F91FF90EF900C947D07C70197
:100FB0000E949E16C82FCBCFC7010E94C616B7014C
:100FC000C8CFCC3380E7D80709F49BC0CD33D047D6
:100FD00001F7F8018281882309F4BAC01092410117
:100FE0000E94201990933F0180933E0180E296C0B9
:100FF000F801828181110E94810780E0DF91CF9109
:101000001F910F91FF90EF900895F801828188233E
:10101000A1F380912002816080932002EECFF8013D
:101020008281882309F4BACF0E948118811102C0FD
:101030000E9467180E949E1890E09093520280933D
:101040005102FE01E350F047809151028160E2318C
:10105000F10538F4E950FA4D0C94A5258091510220
:10106000826080935102809151020E94A2180E94D6
:101070004411C3CF809151028460F3CF809151021B
:101080008860EFCF809151028061EBCF8091510257
:101090008062E7CF809151028064E3CF809151025A
:1010A0008068DFCF809151028C60DBCF809151024C
:1010B0008E7FD7CF809151028D7FD3CF8091510207
:1010C0008B7FCFCF80915102877FCBCF8091510210
:1010D0008F7EC7CF809151028F7DC3CF8091510207
:1010E0008F7BBFCF809151028F77BBCF8091510210
:1010F000837FB7CF90915102892F97FB87F9805852
:10110000B0CFF8018281882361F0109240010E94E3
:10111000201990933F0180933E0182E00E94A90E26
:101120006CCF8091400181110FC080913E01909160
:101130003F010E942C19883C910530F486E20E9400
:101140007E0D86E20E945A0E82E00E94B00E55CFBC
:101150008091410181110FC080913E0190913F012A
:101160000E942C19883C910530F487E20E947E0D84
:1011700087E20E945A0E80E2E8CF0C941F0B0C9479
:10118000210B0C947C070C94C1080895E72FF0E024
:1011900096E0899FE00DF11D112484E0EE0FFF1F02
:1011A0008A95E1F7E60FF11DEE0FFF1FE455FF4FA3
:1011B000859194910895FC01EE0FFF1FE455F34FC4
:1011C0008591949108950E94C6080E94540A9C013A
:1011D000811540E4940708F097C0211580E3380793
:1011E00008F0FAC0203E310508F074C0203C3105FB
:1011F00008F0E5C0283A310588F4253A310508F0B1
:10120000E2C02130310509F477C0C9010497813A61
:10121000910508F471C030E020E06EC0C901885A21
:1012200091094597C0F7283A310509F4FEC0293ADB
:10123000310509F4FDC02A3A310509F4FCC02B3A06
:10124000310509F4FBC02C3A310509F4FAC02B3BF7
:10125000310509F4F9C02C3B310509F4F8C02D3AE9
:10126000310509F4F7C0203B310509F4F6C02E3AE8
:10127000310509F4F5C02F3A310509F4F4C0213BDA
:10128000310509F4F3C0223B310509F4F2C0233BD8
:10129000310509F4F1C0243B310509F4F0C0253BC8
:1012A000310509F4EFC0263B310509F4EEC0273BB8
:1012B000310509F4EDC0283B310509F4ECC0293BA8
:1012C000310509F4EBC02A3B310509F4EAC020E0FE
:1012D00034E412C0211590E2390780F42F3F310524
:1012E00009F050F4283E310538F0C901805F9109BA
:1012F0003065409708F08FCFC9010895C9019F70EC
:101300000E94DB089C01F8CF8115944508F041C08C
:10131000211583E5380708F06AC0211592E53907E1
:1013200038F5211541E5340708F05CC0211580E54A
:10133000380708F454C0C90134E0969587953A956A
:10134000E1F78370422F46954695437090E2499F9E
:10135000A0011124582B822F837021E030E002C0BD
:10136000220F331F8A95E2F7242B352B3C68C4CF1C
:10137000C9018370992741E050E002C0440F551F16
:101380008A95E2F72695269580E2289F9001112400
:10139000EBCF211596E5390748F4922F88272115C0
:1013A0003545C8F59C01246F306AA6CFC901905617
:1013B0003F708115904108F02ECF30629DCFC9015A
:1013C000805C91099DCF253A310549F1263A3105D6
:1013D00049F522E830E490CF3327306C8DCF3F7051
:1013E000306A8ACF322F2227216F306A85CFC90118
:1013F0008370992741E050E002C0440F551F8A9541
:10140000E2F72695269580E2289F90011124242B4F
:10141000352B3A6871CF88279F719C01CECF21E888
:1014200030E46ACF23E830E467CF22EE34E464CFBF
:1014300029EE34E461CF2AEE34E45ECF25EB34E4C8
:101440005BCF26EB34E458CF23EB34E455CF24EBC9
:1014500034E452CF27EB34E44FCF2CEC34E44CCFC0
:101460002DEC34E449CF23E835E446CF2AE835E4CF
:1014700043CF22E935E440CF24E935E43DCF21E2F2
:1014800036E43ACF23E236E437CF24E236E434CFF1
:1014900025E236E431CF26E236E42ECF27E236E4E9
:1014A0002BCF2AE236E428CF803E910581F1C8F4A3
:1014B0008133910509F462C048F48932910509F439
:1014C00056C08A32910509F460C0089589339105A8
:1014D000B9F082389105A1F08533910509F440C037
:1014E0000895863E910561F138F4823E9105B1F090
:1014F000833E9105E1F00895873E910551F10895ED
:10150000209151022370D9F080EE90E0089520914F
:10151000510220FF14C089E390E008952091510208
:1015200022FF0DC024FD09C083EE90E008952091B4
:10153000510222FD31C024FF02C090E080E00895F6
:101540002091510223FFFBCF24FDF7CF87EE90E0DF
:1015500008952091510223FFEECF86EE90E008958A
:101560002091510225FFEBCF89E290E00895209170
:10157000510225FFE4CF85E390E0089520915102C8
:1015800026FFDDCF8AE290E008952091510226FFE8
:10159000D6CF81E390E0089582EE90E0089508951B
:1015A0000F931F93CF938C01FB018281811106C0A1
:1015B000C1E08C2FCF911F910F910895C0914F01E1
:1015C000C11125C00531104799F70E94CF0A81E06B
:1015D00080934F010E94201990934E0180934D01FA
:1015E0001092420110924401109243011092460160
:1015F00010924501109248011092470110924A0141
:101600001092490110924C0110924B01D2CF80915F
:101610004D0190914E010E942C19883C910540F695
:1016200080914201E82FF0E0EE0FFF1FED5BFE4FCF
:10163000118300838F5F80934201C0E0BACF0C9486
:1016400078070C94790785B7806885BF85B780686F
:1016500085BFA3E1B1E061E070E08D91E82FE295F4
:10166000EF70F0E041A18F709B0101C0220F8A95BD
:10167000EAF7922F9095942391A382A1822B82A3C3
:1016800081E0A332B80749F7A3E2B1E061E070E07E
:101690008D91E82FE295EF70F0E041A18F709B01F2
:1016A00001C0220F8A95EAF7922F9095942391A377
:1016B00082A1822B82A381E0A932B80749F7ECE529
:1016C000F1E0A0E5B1E088E691E0119211921D925F
:1016D0001D928E179F07C9F70C94BD083F924F9239
:1016E0005F926F927F928F929F92AF92BF92CF92B2
:1016F000DF92EF92FF920F931F93CF93DF9300D06F
:1017000000D0CDB7DEB783E1A82E81E0B82E1A82D3
:101710001982EE24E394F12C33243394D5018D9176
:101720005D01E82FE295EF70F0E091A18F70470125
:1017300001C0880C8A95EAF7892F882981A382A1A4
:10174000582C5094852182A3B0EABA95F1F7B701DD
:10175000098002C0660F771F0A94E2F73B0160948C
:10176000709400E511E043E251E01C830B83412CAF
:10177000AB81BC818D919D91BC83AB83DA01DD90FF
:10178000AD012D2D22952F7030E0D90190962C912E
:1017900030E0BD2DBF70DB2ED90102C0B595A795F5
:1017A000DA94E2F72B813C8122503109A0FD5EC022
:1017B0006C01C62AD72AD9011196DC92CE922D91BE
:1017C0003C918217930711F0442443948B819C81B0
:1017D0008C55914069F681A1582251A282A1882A94
:1017E00082A2442041F0309268010E942019909317
:1017F0006A0180936901E981FA813196FA83E9836C
:10180000709709F08BCF809168018823B1F08091A7
:10181000690190916A010E942C19069770F0ECE51D
:10182000F1E0D8018D919D918D0181939193B1E06B
:101830000C351B07B1F7109268010E94BF0881E0C8
:101840000F900F900F900F90DF91CF911F910F91FC
:10185000FF90EF90DF90CF90BF90AF909F908F90D0
:101860007F906F905F904F903F9008956C01C620DD
:10187000D720A1CFE82FF0E0EE0FFF1FE45AFE4F74
:1018800080819181089508959093700180936F01F4
:101890000895E0916F01F0917001309721F001906F
:1018A000F081E02D099480E00895E0916F01F091BE
:1018B0007001309721F00280F381E02D09940895A2
:1018C000E0916F01F0917001309721F00480F58173
:1018D000E02D0994089520916D0130916E01281733
:1018E000390771F090936E0180936D01E0916F0163
:1018F000F0917001309721F00680F781E02D099476
:10190000089520916B0130916C012817390771F00F
:1019100090936C0180936B01E0916F01F0917001E5
:10192000309721F00084F185E02D09940895089501
:101930000C94970C0E9417190E94230B0C94E11928
:101940005F926F927F928F929F92AF92BF92CF924F
:10195000DF92EF92FF920F931F93CF93DF9300D00C
:1019600000D00F92CDB7DEB70E946E0B92E7A92E82
:1019700091E0B92E10E000E088248394912C502E41
:10198000802F0E943A0C7C01F501C190D1905F013B
:10199000C816D90609F45DC08091200281FD0E941D
:1019A000430C90E080E0CE24DF243401082E02C0F6
:1019B000660C771C0A94E2F7960126213721232B27
:1019C00009F442C089835A82E620F72081E0EF289B
:1019D00009F480E08B830E9420198160782F9D8319
:1019E0008C8349815A816B818D810E94550D000F36
:1019F000111FF801EE58FE4F8081918168267926EB
:101A0000718260820E948E1C0E94490C909171012B
:101A10008917B1F10E94490C809371010F900F90CA
:101A20000F900F900F90DF91CF911F910F91FF902A
:101A3000EF90DF90CF90BF90AF909F908F907F906E
:101A40006F905F900C94C30801968031910509F066
:101A5000ACCF0F5F1F4F0630110509F090CF8FEF0D
:101A600089838A831B820E9420198160782F9D833D
:101A70008C8349815A816B818D810E94550DC2CF23
:101A80000F900F900F900F900F90DF91CF911F91BB
:101A90000F91FF90EF90DF90CF90BF90AF909F900D
:101AA0008F907F906F905F900895CF93DF93CDB725
:101AB000DEB72B970FB6F894DEBF0FBECDBF4F83B6
:101AC000588769877A878B871E8285E0FE01379663
:101AD000DE01119601900D928A95E1F749815A81B4
:101AE0006B817C818D819E812B960FB6F894DEBF31
:101AF0000FBECDBFDF91CF910C94CC13882309F496
:101B0000D8C0823871F40E94490C81FDD2C089E3AB
:101B10000E946E170E94381889E30E94AB170C943C
:101B20003818833859F40E94490C80FDC2C083E5FF
:101B30000E946E170E94381883E5EFCF843859F45D
:101B40000E94490C82FDB5C087E40E946E170E9476
:101B5000381887E4E2CF9CEF980F913A18F40E946E
:101B60006E17DDCF90E2980F983050F4877091E0B7
:101B700001C0990F8A95EAF7892F0E94EF17CFCFFE
:101B80009BE5980F933070F4853A31F0863A39F03E
:101B900083E890E00C946B0C81E890E0FBCF82E846
:101BA00090E0F8CF98E5980F953108F082C0883A18
:101BB00009F440C0893A09F440C08A3A09F440C0A7
:101BC0008B3A09F440C08C3A09F440C08B3B09F4CD
:101BD00040C08C3B09F440C08D3A09F440C0803BC2
:101BE00009F440C08E3A09F440C08F3A09F440C06D
:101BF000813B09F440C0823B09F440C0833B09F4B7
:101C000040C0843B09F440C0853B09F440C0863B9A
:101C100009F440C0873B09F440C0883B09F440C048
:101C2000893B09F440C08A3B09F440C090E080E061
:101C30000C94810C82EE90E0FBCF89EE90E0F8CF1F
:101C40008AEE90E0F5CF85EB90E0F2CF86EB90E066
:101C5000EFCF83EB90E0ECCF84EB90E0E9CF87EB24
:101C600090E0E6CF8CEC90E0E3CF8DEC90E0E0CF1D
:101C700083E891E0DDCF8AE891E0DACF82E991E074
:101C8000D7CF84E991E0D4CF81E292E0D1CF83E253
:101C900092E0CECF84E292E0CBCF85E292E0C8CF53
:101CA00086E292E0C5CF87E292E0C2CF8AE292E07C
:101CB000BFCF0895882309F44BC0823871F40E9485
:101CC000490C81FF45C089E30E946E170E943818B5
:101CD00089E30E94AB170C943818833859F40E949A
:101CE000490C80FF35C083E50E946E170E943818AA
:101CF00083E5EFCF843859F40E94490C82FF28C055
:101D000087E40E946E170E94381887E4E2CF9CEFA8
:101D1000980F913AF0F290E2980F983050F4877053
:101D200091E001C0990F8A95EAF7892F0E94F51773
:101D3000D2CF9BE5980F933020F490E080E00C9494
:101D40006B0C885A853120F490E080E00C94810C73
:101D50000895882321F00E94EF170C9438180895F5
:101D6000882321F00E94F5170C94381808958F925B
:101D70009F92AF92BF92DF92EF92FF920F931F93C9
:101D8000CF93DF9300D000D00F92CDB7DEB77C01A8
:101D90006D837983FC01058102950F701281111109
:101DA0000E940E180E946717D82E882371F0112305
:101DB000A1F08D81805E883080F082E00E94511712
:101DC0000E94671791E0D82ED926E981E295EF703D
:101DD000F0E0E75FF94D0C94A525D12CF6CF0981F1
:101DE0000F70F981F07F11F00295007F1123B1F09F
:101DF000002361F08D81805E883018F02D812111E3
:101E000009C0802F0E94EF170E9438188D810E9410
:101E10007E0D15C0802F0E940018F6CF8D810E9484
:101E20005A0E002361F08D81805E883018F03D816C
:101E3000311129C0802F0E94F5170E943818DD202B
:101E400009F4D3C10E94441780FDCFC1F70112826B
:101E50000E943E170E948A15C7010E9406110E9427
:101E60003E170F900F900F900F900F90DF91CF9132
:101E70001F910F91FF90EF90DF90BF90AF909F90D8
:101E80008F900C94AC15802F0E940618D6CF4981F4
:101E90004F70B42E5981507F503219F0B29480EFB8
:101EA000B8228D81882369F0813029F1112369F1ED
:101EB000002359F0F701858180FFA8CF8F708583BB
:101EC00004C0112361F0011104C08B2D0E94A90EE2
:101ED000B6CF8B2D0130D1F70E942218B0CF01115F
:101EE00006C00E9425188B2D0E94B00EA8CF01308D
:101EF00009F4A5CFF6CF112321F0063008F09FCFCB
:101F0000E4CF053008F09BCFEECF002361F38D8145
:101F10000E945A0E94CF898186958695837069F0C8
:101F2000813009F08CCF8D8199819370111102C09D
:101F300090E080E00E94810C82CF8D819981937026
:101F4000111102C090E080E00E946B0C78CF8D816F
:101F5000112329F00E949C1B0E94831C70CF0E94B9
:101F6000041CFACF8981837009F05FC0111167CF1B
:101F70002D81229526952770220F220F8D818F703B
:101F800090E0B0E0A0E04C015D01022E04C0880C9E
:101F9000991CAA1CBB1C0A94D2F7FD8160E070E07A
:101FA000CB01F4FF0FC06FE070E080E090E004C070
:101FB000660F771F881F991F2A95D2F76095709535
:101FC0008095909529812695269523702D83223022
:101FD000B1F0233019F19B01AC01282939294A2994
:101FE0005B2929833A834B835C833D8169817A81B4
:101FF0008B819C813130B1F00E94171520CF9B015D
:10200000AC01282939294A295B2929833A834B8342
:102010005C83CA01B9010E94411511CF0E941715B6
:10202000C501B4010E94ED140ACF8695112311F069
:1020300089818170882309F402CF2D81229526950C
:102040002770220F220F8D818F7090E0B0E0A0E00A
:102050004C015D01022E04C0880C991CAA1CBB1CFB
:102060000A94D2F73D8160E070E0CB0134FF0FC0ED
:102070006FE070E080E090E004C0660F771F881F7B
:10208000991F2A95D2F76095709580959095498112
:102090004695469543704D834230B1F0433019F177
:1020A0009B01AC01282939294A295B2929833A83D4
:1020B0004B835C833D8169817A818B819C81313046
:1020C000B1F00E941D16BBCE9B01AC012829392915
:1020D0004A295B2929833A834B835C83CA01B9016E
:1020E0000E944716ACCE0E941D16C501B4010E9485
:1020F000F315A5CE3D81323F09F447C080F4303F4F
:1021000079F1313FD9F1832F805E8031D0F01123F6
:1021100009F456C001117ACE89818F7133C04D8187
:10212000433FD1F1443F99F7112309F43FC089811E
:102130008F7189830E948A1563E089810E94481704
:102140007ECE5D815F705D8389818F71112321F067
:102150000E948A158D81BACE0E94AC158D81C4CEA5
:10216000112341F0053008F06ACE89818F710E94F9
:10217000D11565CE063008F062CEF7CF89818F7118
:10218000112339F00E948A155ACE89818F7111234B
:10219000C9F30E94AC1553CE112329F089818F71A8
:1021A0000E9475154CCE0E946B1549CE81E00E94AD
:1021B0005117023008F443CE82E00E9451173FCEFF
:1021C0000111A5CE89818F71E4CF49814F706D8156
:1021D000C7010E9475070E94661431CE49814F7075
:1021E0006D81C7010E94C5082ACE0F900F900F90F5
:1021F0000F900F90DF91CF911F910F91FF90EF9073
:10220000DF90BF90AF909F908F9008950F931F9392
:10221000CF93DF93EC018B819C81892B29F08881FE
:10222000998189238F3F29F4DF91CF911F910F91DD
:102230000895CE010E948E078823B1F368817981C9
:102240008A810E9414178C010E9471160E94E21468
:10225000B801CE01DF91CF911F910F910C94B70E71
:102260000E940E180E941F180E94E1170E94381841
:102270000E94741D0E94831C90E080E00E946B0C01
:1022800090E080E00C94810C0E94FD170C943011BA
:102290000E940817282F892F82958F70903C80F418
:1022A0008A30B0F4843020F4823090F480E00895D5
:1022B0008630E1F781E0203E88F0213FB9F70EC07B
:1022C0008C3011F08F3091F793FB882780F90895B7
:1022D00081E0203F39F018F4203E40F70895243F74
:1022E00029F7FCCF0895CF93DF9300D000D00F9251
:1022F000CDB7DEB70F900F900F900F900F90DF913A
:10230000CF910895CF93DF9300D000D000D0CDB708
:10231000DEB726960FB6F894DEBF0FBECDBFDF91B5
:10232000CF9108951F93CF93DF93E0917F0116E043
:10233000809180018E1304C0DF91CF911F91089589
:10234000CE2FD0E01E9FF0011124EF57FE4F4081A9
:10235000518162817381848195810E948211FE0185
:102360003196E770E5CF4091B1015091B201609193
:10237000B3017091B4018091B5019091B6010C94B4
:1023800082111F93CF93DF938091B601807FC1F4B8
:102390008091B3018823A1F080917F01C0918001D9
:1023A0006091B1017091B2014091B4015091B501B9
:1023B000D62FD723DA01A095B09516E0C81304C034
:1023C000DF91CF911F91089590E04115510511F0D3
:1023D000DF3F31F401968770F1CF2A0F3B1F17C002
:1023E000189FF001199FF00D1124EF57FE4F218126
:1023F0002713F0CF20812613EDCF22812111EACFC0
:10240000238134812417350740F3241B350B283CE6
:10241000310500F72091B6012F7020612093B6019D
:1024200026E0289FF001299FF00D1124EA57FE4F66
:1024300080818F708061808381EB91E00E94061122
:10244000DF91CF911F910C9492119F92AF92BF9206
:10245000CF92DF92EF92FF920F931F93CF93DF9370
:10246000CDB7DEB72B970FB6F894DEBF0FBECDBF4A
:102470008C0185E0F801DE01179601900D928A9596
:10248000E1F7D8014C9111965C9111971296EC905E
:1024900012978091B4019091B501009709F46BC136
:1024A0002091B1013091B201632F62236F3F09F493
:1024B00062C11396CD90DC909090B301992009F4FD
:1024C000F8C0C816D90608F43FC0F601E81BF90B9E
:1024D000CF01FF24F394883C910508F0F12C81EBA7
:1024E000A82E81E0B82E8091B601982F907FFF2012
:1024F00009F4B7C0911180C0FE2C35132AC02413F3
:1025000028C0E11026C08F7080618093B6010E94C0
:10251000B311C5010E9406118091B601D80115962C
:102520008C938F2D2B960FB6F894DEBF0FBECDBFC8
:10253000DF91CF911F910F91FF90EF90DF90CF909F
:10254000BF90AF909F900895809590958C0D9D1DA4
:10255000C0CFCD2829F0842F85238F3F09F019C1E2
:1025600080E0B82FB170DB2EE0917F0120918001D7
:1025700036E080FD1CC0EE20A1F28091B6018160A2
:102580008093B601F12CCDCF8E2F90E03E9FF001CD
:102590001124EF57FE4F6181651306C060816413FB
:1025A00003C062816E11E7CFFC013196E770E21340
:1025B000EBCF4F8358878F8198850E940817292F6A
:1025C00022952F70903260F0225F2F70223078F4C5
:1025D0009F7051F0F8019581907F31F4D12C0AC0A1
:1025E0009F7011F08823D1F3805E8830B8F3C80162
:1025F0000E940611FD2C95CF351306C0241304C08C
:10260000D801EE2009F47BC04F8358878F819885CD
:102610000E944811882309F4B8C0EE2009F4B5C01F
:102620008091B601803270F02091B1013091B201F9
:102630003A8329831B82DD82CC828E83CE01019670
:102640000E94061186E0F801A1EBB1E001900D9225
:102650008A95E1F70E94C1110E94B311FF24F394FF
:1026600060CF911113C07C2DDB86CA866E2D8B85C1
:102670000E94731181EB91E00E94061186E0F50142
:1026800011928A95E9F70E94B3114BCF3513BCCF55
:102690002413BACFE110B8CFD80115968C93C80196
:1026A0000E94061186E0F50111928A95E9F7F92C4E
:1026B00038CFC816D90688F1B601681B790BCB0153
:1026C000F12C883C910508F047C0FE2CEE2009F45F
:1026D0005CC0351330C024132EC08091B60180FD3C
:1026E00021C0982F907FF1F0D80115968C93159703
:1026F000903F39F0982F907F905F8F70892B1596BF
:102700008C93C8010E94061186E0F801A1EBB1E0AC
:1027100001900D928A95E1F7B6CF809590958C0D3A
:102720009D1DCECF86E0F801A1EBB1E001900D92A6
:102730008A95E1F7F6CE4F8358878F8198850E945E
:10274000481181117FCF8091B60181608093B601DD
:10275000C8010E940611E5CE7C2DDB86CA866E2D4F
:102760008B850E94731186E0E1EBF1E0DF011D92A1
:102770008A95E9F788CFEE2041F04F8358878F8103
:1027800098850E94481181115DCFC8010E940611F1
:1027900065CF81E08E25E5CE1F93CF93DF93CDB734
:1027A000DEB72C970FB6F894DEBF0FBECDBF4F83B8
:1027B000588769877A878B879C87CE0107960E9406
:1027C0002512882369F08A859B85892B39F04F81F2
:1027D0005885842F85238F3F09F071C016E05FC0B4
:1027E00086E0FE013796DE01119601900D928A95E2
:1027F000E1F78A859B85892B89F388859F818923C9
:102800008F3F61F32091800130E0C901019687700C
:10281000992740917F014817190671F40E944411CD
:102820001092800110927F0186E0E1EBF1E0DF0180
:102830001D928A95E9F7D2CF96E0929FD001939F9F
:10284000B00D1124AF57BE4FFE01319601900D928D
:102850009A95E1F7809380010E949211BFCF819FEA
:10286000C00111248F579E4F0E9425128823E9F042
:10287000E0917F011E9FF0011124EF57FE4F408130
:10288000518162817381848195810E94821180913E
:102890007F0190E001968770992780937F01809156
:1028A0007F01909180018913DACF2C960FB6F894AE
:1028B000DEBF0FBECDBFDF91CF911F910895698517
:1028C0007A858B859C850E94821188CFEF92FF923A
:1028D0000F931F93CF93DF938C01892B89F0F12CF9
:1028E000EE24E394E8012196F8018491843709F4F9
:1028F00057C0A0F4823009F43EC048F48130D1F0D2
:10290000DF91CF911F910F91FF90EF9008959CEF71
:10291000980F9037A8F70E947E0D0AC0853709F4FA
:102920004CC09CE7980F903758F78F770E945A0E4B
:102930008E0116C00E5F1F4FFE01849190E2980F2A
:10294000983060F48770FE2D01C0FF0F8A95EAF77A
:102950008F2F0E9411180E94381802C00E947E0D0D
:102960008F2D815008F4BECFEFE9FFE03197F1F7EA
:1029700000C00000F6CF0E5F1F4FFE01849190E271
:10298000980F983050F48770FE2D01C0FF0F8A9584
:10299000EAF78F2F0E941718DECF0E945A0EE0CF61
:1029A0000E5F1F4FFE01C491C150D0F28FE99FE02E
:1029B0000197F1F700C00000F7CF0E5F1F4FFE0137
:1029C000F490CECF08956093F7017093F80180934F
:1029D000F9019093FA010C943011CF93DF9300D05A
:1029E00000D0CDB7DEB769837A838B839C838091D7
:1029F000F7019091F801A091F901B091FA012981B4
:102A00003A814B815C81822B932BA42BB52B809335
:102A1000F7019093F801A093F901B093FA010F9098
:102A20000F900F900F90DF91CF910C943011CF93B6
:102A3000DF9300D000D0CDB7DEB769837A838B8374
:102A40009C838091F7019091F801A091F901B091D8
:102A5000FA0129813A814B815C8182239323A4234B
:102A6000B5238093F7019093F801A093F901B093F7
:102A7000FA010F900F900F900F90DF91CF910C946F
:102A80003011CF93DF9300D000D0CDB7DEB769838C
:102A90007A838B839C838091F7019091F801A091B8
:102AA000F901B091FA0129813A814B815C81822739
:102AB0009327A427B5278093F7019093F801A0935B
:102AC000F901B093FA010F900F900F900F90DF91E2
:102AD000CF910C9430111092F3011092F4011092E6
:102AE000F5011092F6010C94301141E050E060E0E5
:102AF00070E004C0440F551F661F771F8A95D2F7F8
:102B00004093F3015093F4016093F5017093F60143
:102B10000C943011282F81E090E0A0E0B0E004C0D8
:102B2000880F991FAA1FBB1F2A95D2F74091F30166
:102B30005091F4016091F5017091F601842B952B71
:102B4000A62BB72B8093F3019093F401A093F5018A
:102B5000B093F6010C94301141E050E060E070E079
:102B600004C0440F551F661F771F8A95D2F7409502
:102B70005095609570958091F3019091F401A0912A
:102B8000F501B091F60184239523A623B723809302
:102B9000F3019093F401A093F501B093F6010C9426
:102BA0003011282F81E090E0A0E0B0E004C0880F51
:102BB000991FAA1FBB1F2A95D2F74091F30150918C
:102BC000F4016091F5017091F60184279527A627FD
:102BD000B7278093F3019093F401A093F501B0938C
:102BE000F6010C943011CF93DF9300D000D0CDB715
:102BF000DEB769837A838B839C838091F301909104
:102C0000F401A091F501B091F60129813A814B813F
:102C10005C81822B932BA42BB52B8093F301909393
:102C2000F401A093F501B093F6010F900F900F906F
:102C30000F90DF91CF910C943011CF93DF9300D0A0
:102C400000D0CDB7DEB769837A838B839C83809174
:102C5000F3019091F401A091F501B091F601298161
:102C60003A814B815C8182239323A423B5238093F3
:102C7000F3019093F401A093F501B093F6010F9046
:102C80000F900F900F90DF91CF910C943011CF9354
:102C9000DF9300D000D0CDB7DEB769837A838B8312
:102CA0009C838091F3019091F401A091F501B09182
:102CB000F60129813A814B815C8182279327A427E1
:102CC000B5278093F3019093F401A093F501B0939D
:102CD000F6010F900F900F900F90DF91CF910C9411
:102CE000301108959295907FE92FE80F877041E0A9
:102CF00001C0440F8A95EAF7E695E695E69585E0EA
:102D0000E89FF0011124E954FE4F30E020E070E02C
:102D10005191DF011197CB01022E02C09695879544
:102D20000A94E2F7817081958527842385278C9307
:102D30002F5F3F4F2530310559F70895E92FE29570
:102D4000E07FE80F982F9770E695E695E69585E089
:102D5000E89FF0011124E954FE4F50E040E080E08C
:102D6000219130E0092E02C0369527950A94E2F7AA
:102D700021703327042E01C0220F0A94EAF7822B18
:102D80004F5F5F4F4530510559F70895BF92CF927D
:102D9000DF92EF92FF920F931F93CF93DF938C01FB
:102DA000C090F301D090F401E090F501F090F601AD
:102DB0008091F7019091F801A091F901B091FA0189
:102DC000C82AD92AEA2AFB2ACFE1D0E0BC2ED701B3
:102DD000C6010C2E04C0B695A795979587950A94C1
:102DE000D2F780FD0EC0219788F7B12C8B2DDF9193
:102DF000CF911F910F91FF90EF90DF90CF90BF90F8
:102E00000895B8018C2F0E94E308019761F3EECF7B
:102E1000CF93DF93D82FC92F0E94C6166D2F7C2F1A
:102E2000DF91CF910C94E3081F93CF93DF93162F7C
:102E3000D72F90917E01992339F0862F972FDF911C
:102E4000CF911F910C940817882391F0862F972F0C
:102E50000E94C616C82F682F812F9D2F0E947216C0
:102E6000612F7D2F8C2FDF91CF911F910C94E30860
:102E7000862F972F0E949E16C82FF2CF8091FB01BC
:102E800085958595859508958091FB0187700895B6
:102E900098E0899F90011124622B6093FB010C94B0
:102EA0008A159091FB01809589238093FB01282F3F
:102EB000277061F4282F082E000C330B921713068D
:102EC00029F08595859585950C94AC15089590917C
:102ED000FB01977081E009F480E008959091120160
:102EE0009923E1F09091510297FF18C0E82FE695E1
:102EF000E695E695EF3139F120910001309101011D
:102F0000E20FF32FF11D877021E030E001C0220FA6
:102F10008A95EAF78181822B8183089520910001AF
:102F200030910101F90132969FEF40E051918517F0
:102F300051F09F3F19F4511101C0942F4F5F4E3152
:102F4000A9F79F3F09F40895290F311D97FD3A9580
:102F5000F9018283089590911201992301F19091D2
:102F6000510297FF1CC0E82FE695E695E695EF31F4
:102F700039F12091000130910101E20FF32FF11D91
:102F8000877021E030E0A90102C0440F551F8A95E7
:102F9000E2F7CA0180959181892381830895209168
:102FA000000130910101F9013296205E3F4F91916D
:102FB000891303C0DF0111971C92E217F307B9F7D9
:102FC000089581E090E0E0910001F0910101E80FA7
:102FD000F91F1082019680329105A9F7089590910A
:102FE0001F02982B90931F020895982F909580911F
:102FF0001F02892380931F02089510921F020895D3
:1030000090911E02982B90931E020895982F9095F0
:1030100080911E02892380931E02089510921E0241
:10302000089590911D02982B90931D020895982F5A
:10303000909580911D02892380931D02089510921E
:103040001D0208958093FC0108951092FC010895DB
:103050002091000130910101F9013196205E3F4F2E
:1030600080E0919191118F5FE217F307D1F70895F6
:10307000E0910001F091010180911F028083E091B5
:103080000001F0910101808190911E02892B8083C3
:10309000E0910001F0910101808190911D02892B46
:1030A00080839091FC01992361F0E0910001F091FF
:1030B00001018081892B80830E9428188111109240
:1030C000FC0180910001909101010C94550C6DEE72
:1030D0007EEF90E080E00E94DF2560E082E090E0FB
:1030E0000E94CD2560E083E090E00E94CD2560E065
:1030F00084E090E00E94CD2560E085E090E00C94B3
:10310000CD2590E080E00E94C7259C0181E02D3E06
:103110003E4F09F080E0089582E090E00C94BF25D6
:10312000682F82E090E00C94CD2583E090E00C9431
:10313000BF25682F83E090E00C94CD2584E090E0DB
:103140000C94BF25682F84E090E00C94CD258091ED
:103150005702843039F11092210288E190E020E496
:103160000FB6F894A895809360000FBE209360007E
:1031700080E00E94C30883B7817F846083BF83B7E8
:10318000816083BF7894889583B78E7F83BF0FB6A5
:10319000F894A895809160008861809360001092F7
:1031A00060000FBE089508950895CF930E94D3182C
:1031B0000E946E0B0E94D418C0E08C2F0E943A0C23
:1031C000892B31F4CF5FC630C1F780E0CF910895ED
:1031D00081E0FCCF0E9444110E94490C0C94C3086A
:1031E0001F921FB61F9211248F939F93AF93BF938B
:1031F00080912102811113C080914D0290914E0265
:10320000A0914F02B09150024196A11DB11D809333
:103210004D0290934E02A0934F02B0935002BF9183
:10322000AF919F918F911F901FBE1F90189582E0C4
:1032300084BD93E095BD9AEF97BD80936E0008958D
:103240002FB7F89480914D0290914E02A0914F02B9
:10325000B09150022FBF0895CF92DF92EF92FF926C
:103260009C014FB7F89480914D0290914E02A0912D
:103270004F02B09150024FBF6C017D01EE24FF243C
:10328000A90170E060E0C416D506E606F70638F03E
:10329000821B930BFF90EF90DF90CF9008950197E2
:1032A000F7CF1F921FB61F9211248F939F93AF9356
:1032B000BF9380914D0290914E02A0914F02B09128
:1032C00050020196A11DB11D80934D0290934E02B4
:1032D000A0934F02B0935002BF91AF919F918F91F5
:1032E0001F901FBE1F9018950E946821F8942FEF21
:1032F00087EA91E6215080409040E1F700C000004D
:1033000087E090EBDC018093600290936102A093D0
:103310006202B093630288E19CE00FB6F894A8952E
:10332000809360000FBE90936000FFCFAF92BF927A
:10333000CF92DF92EF92FF920F931F93CF93C0E053
:10334000AA24A394B12CE82EF12C8C2F0E943A0CC5
:103350006C0110E000E0C501002E02C0880F991F2B
:103360000A94E2F78C219D21892B99F0602F7C2F04
:1033700080E00E94C608E816F90659F481E0CF9172
:103380001F910F91FF90EF90DF90CF90BF90AF9083
:1033900008950F5F1F4F00311105E9F6CF5FC6306A
:1033A000A1F680E0ECCFCF93C82F8CE20E94961953
:1033B000882321F08C2FCF910C94961980E0CF9127
:1033C0000895CF93DF9300D000D0CDB7DEB70E9431
:1033D0008118811102C00E94671895E6998308C080
:1033E0000E946E0B8FE39CE90197F1F700C000008B
:1033F000A981A150A983A111F3CF89E20E94D31919
:10340000811110C18AE20E94D31981110E946718AC
:1034100085E00E94D31981110E9474190E948C18B2
:103420008093200287E00E94D319882371F08BE1FA
:103430000E94D319882309F4D1C090912002892FCA
:103440008D7F91FF826080932002809120020E94F4
:1034500090180E949E1890E090935202809351021F
:1034600080EE0E94D319882341F090915102892F58
:103470008E7F90FF81608093510289E30E94D3196F
:10348000882341F090915102892F8D7F91FF8260B6
:103490008093510282EE0E94D319882341F09091CB
:1034A0005102892F8B7F92FF84608093510286EEB8
:1034B0000E94D319882341F090915102892F877F70
:1034C00093FF88608093510283EE0E94D319882372
:1034D00041F090915102892F8F7E94FF80618093FB
:1034E000510285E30E94D319882341F09091510243
:1034F000892F8F7D95FF80628093510281E30E9426
:10350000D319882341F090915102892F8F7B96FF28
:1035100080648093510281E10E94D319882341F095
:1035200090915102892F97FB87F98058809351021F
:10353000809151020E94A21887E20E94D3198983C8
:103540008EE10E94D319882319F0B981B260B98342
:103550008FE10E94D319882319F0298124602983DF
:1035600080E20E94D319882319F0398138603983A9
:1035700081E20E94D319882319F04981406149836F
:1035800082E20E94D319882319F05981506259832D
:1035900083E20E94D319882319F08981806489838A
:1035A00084E20E94D3198823B1F1998190689983AC
:1035B00089810E9499183981232F30E050E040E042
:1035C00029833A834B835C83CA01B9010F900F9022
:1035D0000F900F90DF91CF910C94E3148EE00E9436
:1035E000D319882339F090912002892F8B7F92FF85
:1035F000846029CF80E10E94D31990912002882312
:1036000029F0892F877F93FF88601DCF892F8E7FB8
:1036100090FF816018CFA981A111CACF0E9495188F
:10362000282FCBCF0F900F900F900F90DF91CF915D
:1036300008958091240280FF12C06091050185E009
:10364000689FB001112475956795759567956038E9
:103650007105A8F561157105A1F1862F089581FF07
:1036600009C06091050185E0689FB001112475953E
:103670006795EDCF6091050182FD0AC0809125021A
:103680008823D1F09091040160910501891728F0F9
:1036900085E0689FB0011124DACF869FB001112424
:1036A00085E0869F9001879F300D1124692F70E07F
:1036B000C9010E949125CBCF65E070E0CECF8FE7A6
:1036C000089581E008958091240280FF0CC06091EC
:1036D000030170E07595679575956795611571059E
:1036E00049F1862F089581FF06C06091030170E0C3
:1036F00075956795F3CF6091030182FD0BC09091A2
:1037000025029923A1F0609102018091030196178F
:1037100038F0682F70E06038710500F38FE7089586
:10372000899FC001112470E00E949125F4CF61E0CF
:1037300070E0D7CF81E00895803F31F40E94191BDB
:103740008195809328020895813F19F40E94191BE6
:10375000F8CF823F31F40E94191B81958093270294
:103760000895833F19F40E94191BF8CF893F29F46B
:103770000E94631B8093290208958A3F21F40E94CE
:10378000631B8195F7CF8B3F31F40E94631B8195BA
:1037900080932A0208958C3F19F40E94631BF8CF8E
:1037A000843F31F48091260281608093260208953F
:1037B000853F21F4809126028260F7CF863F21F475
:1037C000809126028460F1CF873F21F48091260208
:1037D0008860EBCF883F21F4809126028061E5CF9D
:1037E0008D3F31F4809124028160809324020895FA
:1037F0008E3F21F4809124028260F7CF8F3FB9F78A
:10380000809124028460F1CF90912702803F41F49F
:103810008091280287FD10922802992371F0089563
:10382000813F29F4809128021816ACF3F6CF823F2D
:1038300081F497FFF2CF1092270280912802909195
:103840002902892B90912A02892B49F7109225028F
:103850000895833F19F4191674F3DFCF893F39F4C3
:10386000809129021816CCF610922902D6CF8A3FF1
:1038700029F48091290287FFD0CFF6CF8B3F39F40E
:1038800080912A0287FFC9CF10922A02C6CF8C3FAF
:1038900029F480912A021816BCF3BFCF843F31F47B
:1038A000809126028E7F80932602B7CF853F21F438
:1038B000809126028D7FF7CF863F21F480912602EA
:1038C0008B7FF1CF873F21F480912602877FEBCF5A
:1038D000883F21F4809126028F7EE5CF8D3F31F421
:1038E000809124028E7F8093240297CF8E3F21F413
:1038F000809124028D7FF7CF8F3F09F08ECF80918A
:1039000024028B7FF0CF86E292E00E94600C0E943E
:103910002019909323028093220208951F93CF933E
:10392000DF9300D000D000D0CDB7DEB78091220267
:10393000909123020E942C19AC01809125022091C4
:10394000060130E0811106C0209107019AE0299F0D
:10395000900111244217530788F020912702A0916B
:103960002802A98310912902B0912A02BE83211155
:103970000FC09A2F912B9B2B09F0B2C026960FB641
:10398000F894DEBF0FBECDBFDF91CF911F91089598
:103990008F3F19F08F5F80932502121624F40E9446
:1039A000191B809327028091270287FF05C00E9480
:1039B000191B8195809327022981121624F40E94F5
:1039C000191B809328028091280287FF05C00E945E
:1039D000191B81958093280280912702882309F47E
:1039E00055C0309128023D83332309F44FC0282F5E
:1039F000880F330B440B550B29833A834B835C832D
:103A0000CA01B9010E94982423E333E343E35FE34F
:103A100069837A838B839C8369817A818B819C8182
:103A20000E94FC2469837A838B839C8369817A81D9
:103A30008B819C810E946024609327028D81082ED7
:103A4000000C990BAA0BBB0B89839A83AB83BC83B5
:103A5000BC01CD010E94982423E333E343E35FE3F9
:103A600069837A838B839C8369817A818B819C8132
:103A70000E94FC2469837A838B839C8369817A8189
:103A80008B819C810E94602460932802111624F48B
:103A90000E94631B809329028091290287FF05C041
:103AA0000E94631B8195809329029E81191624F43C
:103AB0000E94631B80932A0280912A0287FF05C01F
:103AC0000E94631B819580932A0226960FB6F89474
:103AD000DEBF0FBECDBFDF91CF911F910C94831C31
:103AE0008F3F09F057CF68CF85E0E6E2F2E0DF01D3
:103AF0001D928A95E9F710922502109224020895EA
:103B000080914B020895CF93DF9300D00F92CDB7F1
:103B1000DEB720915702243019F523E029838A83E8
:103B20009B832093E9008FEF9091E800815095FDF1
:103B300006C095ED9A95F1F700008111F5CF8091BF
:103B4000E80085FF0DC050E040E063E070E0CE018A
:103B500001960E94E01F8091E8008E778093E80034
:103B60000F900F900F90DF91CF910895CF93DF9337
:103B700000D00F92CDB7DEB79C0180915702843000
:103B800031F582E08983205831093B832A8383E021
:103B90008093E9008FEF9091E800815095FD06C079
:103BA00095ED9A95F1F700008111F5CF8091E8002D
:103BB00085FF0DC050E040E063E070E0CE0101966B
:103BC0000E94E01F8091E8008E778093E8000F90BC
:103BD0000F900F90DF91CF910895209157022430DC
:103BE000F1F422E02093E9002FEF3091E80021501A
:103BF00035FD06C035ED3A95F1F700002111F5CFFE
:103C00002091E80025FF0BC050E040E065E070E047
:103C10000E94E01F8091E8008E778093E80008956D
:103C2000CF93DF93D82FC92F809157028430F1F4BE
:103C3000909112019923E9F09091510297FF19C0D8
:103C40008093E9008FEF9091E800815095FD06C0C8
:103C500095E19A95F1F700008111F5CF8091E80088
:103C600050E040E060E270E085FD1AC0DF91CF9146
:103C7000089581E08093E9008FEF9091E8008150F2
:103C800095FD06C095ED9A95F1F700008111F5CFED
:103C90008091E80085FFEACF50E040E068E070E006
:103CA0008D2F9C2F0E94E01F8091E8008E778093DB
:103CB000E80080E2ED2FFC2FABE2B2E001900D9224
:103CC0008A95E1F7D3CF80915602811109C00E94F5
:103CD00068210E94C5218091E20084608093E20007
:103CE0000895109256020895089508950C94EA18C4
:103CF00042E061EC81E00E94E42042E061EC82E07D
:103D00000E94E42042E061EC83E00E94E42042E271
:103D100061EC84E00C94E42080915902893089F1AF
:103D200048F4823009F494C0833009F44FC08130E4
:103D300041F008958A3009F47BC08B3009F461C0EA
:103D4000089580915802813A09F03FC08091E800BF
:103D5000877F8093E80080915C0290915D02892BBF
:103D600061F460E28BE292E070E00E942F2080918B
:103D7000E8008B778093E800089560E090E080E0B1
:103D8000F3CF80915802813201F580915C029091CD
:103D90005D02009711F00397C1F48091E800877FDE
:103DA0008093E8008091E80082FF0BC08091F100D1
:103DB00080934B028091E8008B778093E8000C940D
:103DC0001821809157028111EDCF089580915802FA
:103DD000813AD9F780915C0290915D02892BA9F715
:103DE0008091E800877F8093E8008091E80080FF61
:103DF000FCCF809112018093F1008091E8008E77D2
:103E0000DCCF80915802813201F780915C02909161
:103E10005D02892BD1F68091E800877F8093E800CE
:103E20000E94182180915A02809312010C9444112F
:103E300080915802813249F68091E800877F809313
:103E4000E8000E94182180915B0280934C02089543
:103E500080915802813A09F0B8CF8091E800877FBD
:103E60008093E8008091E80080FFFCCF80914C02B5
:103E7000C2CF84B7877F84BF0FB6F894A89580918E
:103E80006000886180936000109260000FBE80E83F
:103E900080936100109261000E94980C0E9468213A
:103EA0000E94C5218091E20084608093E2007894B2
:103EB0000E9445240E949A0C88E091E00E94440CE4
:103EC00080915702853019F00E94A00CF9CF0E9412
:103ED000A71880915502882399F30E94D51888234A
:103EE00079F30E94CA1FECCF9C01DA01892F992730
:103EF00083309105C1F068F48130910509F445C023
:103F0000029761F48DE690E02CED3CE02D933C931C
:103F1000089581329105E1F0829739F190E080E0D7
:103F200030E020E0F3CFC9019927213059F08230E9
:103F3000910559F0E8EDFCE0892B81F7849190E040
:103F40009F01E4CFE0ECFCE0F9CFECEAFCE0F6CF37
:103F5000643020F7E62FF0E0EE0FFF1FEB5CFE4F22
:103F60002081318189E090E0D1CF6430B8F670E0F3
:103F7000FB01EE0FFF1FE35DFE4F20813181675D86
:103F80007E4FFB01808190E0C1CF82E190E029E487
:103F90003DE0BCCF80E189BD82E189BD09B400FE6E
:103FA000FDCF8091D8008F7D8093D8008091E00074
:103FB00082608093E0008091E00081FDFCCF089555
:103FC000AF92BF92CF92DF92FF920F931F93CF9346
:103FD000DF936C01EB018A010E943721F82E8111D9
:103FE00023C00115110539F0F80180819181C81BAA
:103FF000D90BC80ED91EB12CA12C2097A9F0809105
:10400000E80085FD22C08091E8008E778093E8006B
:1040100001151105A1F0F80180819181A80EB91E4A
:10402000B182A08285E0F82E8F2DDF91CF911F9174
:104030000F91FF90DF90CF90BF90AF9008950E94B6
:1040400037218823D1F2F82EEFCFF60181916F014D
:104050008093F1002197FFEFAF1ABF0ACECFFC018A
:10406000CB0120915E0230915F022617370790F056
:10407000009729F42091E8002E772093E80040E093
:10408000009751F4411108C08091E80082FF31C0CF
:1040900080E00895C901F3CF209157022223A9F1AE
:1040A0002530A9F12091E80023FD2DC02091E800E2
:1040B00022FDEACF2091E80020FFE2CF3091F3000B
:1040C0002091F200009719F02830310558F041E0B6
:1040D0002830310509F040E02091E8002E77209348
:1040E000E800CECF41914093F10001972F5F3F4F01
:1040F000E9CF80915702882341F0853041F08091CB
:10410000E80083FFC1CF81E0089582E0089583E055
:104110000895FC01CB0120915E0230915F022617C9
:10412000370790F0009729F42091E8002E7720932C
:10413000E80040E0009751F4411108C08091E80088
:1041400082FF32C080E00895C901F3CF2091570269
:104150002223B1F12530B1F12091E80023FD2EC0DA
:104160002091E80022FDEACF2091E80020FFE2CF75
:104170003091F3002091F200009719F028303105BA
:1041800058F041E02830310509F040E02091E80086
:104190002E772093E800CECF44914093F1003196E2
:1041A00001972F5F3F4FE8CF80915702882341F05E
:1041B000853041F08091E80083FFC0CF81E0089511
:1041C00082E0089583E00895982F973028F08F704B
:1041D0008093E90081E008959093E900242F762FE1
:1041E00050E0981731F07091EC002091ED00509163
:1041F000F00021FD02C09F5FE8CF3091EB003E7FD1
:104200003093EB003091ED003D7F3093ED00309125
:10421000EB0031603093EB007093EC002093ED00E5
:104220005093F0002091EE0027FDE5CF80E0089547
:104230008091580287FF13C08091E80082FF06C07A
:104240008091E8008B778093E80004C0809157024A
:104250008111F2CF0895809157028823D9F380917C
:10426000E80080FFF8CF8091E8008E77ECCF2091B6
:10427000E4003091E50095E6A9012091EC00822F41
:10428000817020FF06C08091E80080FF06C080E0BA
:1042900008952091E80022FD1AC0809157028823DA
:1042A00089F0853089F08091EB0085FD0FC0209169
:1042B000E4003091E50042175307F9F29150E1F61E
:1042C00084E0089582E0089583E0089581E00895F0
:1042D0000E94D6210E94DE21E0EEF0E08081816024
:1042E0008083E8EDF0E080818F77808319BCA7EDB3
:1042F000B0E08C918E7F8C9380818F7E8083109232
:10430000560208950F931F93CF93DF930E94D621F7
:104310000E94DE21C8EDD0E088818F778883888174
:104320008068888388818F7D888319BC10925702AA
:1043300010925302109255021092540200EE10E0B7
:10434000F80180818B7F808388818160888342E04F
:1043500060E080E00E94E420E1EEF0E080818E7F6A
:104360008083E2EEF0E080818160808380818860DC
:104370008083F80180818E7F80838881806188833B
:10438000DF91CF911F910F910895E8EDF0E08081CA
:104390008F7E8083E7EDF0E080818160808384E020
:1043A00082BF81E0809356020C948221E8EDF0E018
:1043B00080818E7F80831092E20008951092DA004F
:1043C0001092E10008951F920F920FB60F921124E0
:1043D0002F933F934F935F936F937F938F939F930D
:1043E000AF93BF93EF93FF938091E10082FF0BC0E7
:1043F0008091E20082FF07C08091E1008B7F809373
:10440000E1000E9444248091DA0080FF19C080916D
:10441000D80080FF15C08091DA008E7F8093DA008B
:104420008091D90080FF94C080E189BD82E189BD7F
:1044300009B400FEFDCF81E0809357020E94631E05
:104440008091E10080FF19C08091E20080FF15C0DB
:104450008091E2008E7F8093E2008091E200806193
:104460008093E2008091D80080628093D80019BCCC
:1044700085E0809357020E94751E8091E10084FFC1
:1044800029C08091E20084FF25C080E189BD82E1DE
:1044900089BD09B400FEFDCF8091D8008F7D809347
:1044A000D8008091E1008F7E8093E1008091E2004E
:1044B0008F7E8093E2008091E20081608093E20031
:1044C00080915302882309F449C084E08093570205
:1044D0000E94761E8091E10083FF29C08091E20056
:1044E00083FF25C08091E100877F8093E10082E017
:1044F00080935702109253028091E1008E7F809347
:10450000E1008091E2008E7F8093E2008091E200E2
:1045100080618093E20042E060E080E00E94E4205D
:104520008091F00088608093F0000E94741EFF91DB
:10453000EF91BF91AF919F918F917F916F915F911B
:104540004F913F912F910F900FBE0F901F90189594
:1045500019BC109257020E94711E72CF8091E30025
:1045600087FD02C081E0B2CF83E0B0CF1F920F92EF
:104570000FB60F9211242F933F934F935F936F9336
:104580007F938F939F93AF93BF93CF93DF93EF93DB
:10459000FF93D091E900DF708091EC00C82FC170CB
:1045A00080FDC0E81092E9008091F000877F809341
:1045B000F00078940E94FA221092E9008091F000B5
:1045C00088608093F000CD2BCF70C093E900FF91FD
:1045D000EF91DF91CF91BF91AF919F918F917F919B
:1045E0006F915F914F913F912F910F900FBE0F9060
:1045F0001F9018951F93CF93DF93CDB7DEB7AA977F
:104600000FB6F894DEBF0FBECDBF88E592E0FC0187
:1046100001962091F100208322E080369207B9F7BD
:104620000E948C1E8091E80083FF16C18091580281
:10463000909159029A3008F00FC1E92FF0E0E75E3F
:10464000F94D0C94A525803881F0823809F004C119
:1046500080915C028F708093E9008091EB0085FB74
:10466000882780F91092E90006C080915402909149
:104670005502911182609091E800977F9093E80035
:104680008093F1001092F1008091E8008E77E0C0F5
:10469000882309F4CEC0823009F0DEC080915A022E
:1046A0008111D1C080915C028F7009F4D5C08093D4
:1046B000E9002091EB0020FFC6C0933031F48091D7
:1046C000EB0080628093EB00BEC09091EB009061A4
:1046D0009093EB0021E030E001C0220F8A95EAF7C9
:1046E0002093EA001092EA008091EB008860EACF04
:1046F0008111B2C010915A021F778091E300807837
:10470000812B8093E3008091E800877F8093E8000D
:104710000E9418218091E80080FFFCCF8091E30087
:1047200080688093E30082E0111183E08093570258
:1047300093C08058823008F08FC080915A029091C7
:104740005B028C3D23E09207A1F583E08A838AE235
:1047500089834FB7F894DE01139620E03EE051E2E2
:10476000E32FF0E050935700E49120FF03C0E2955F
:10477000EF703F5FEF708E2F90E0EA30C0F0C79689
:104780008D939D932F5F243159F74FBF8091E8009F
:10479000877F8093E8006AE270E0CE0101960E9474
:1047A0002F208091E8008B778093E80055C0C09659
:1047B000E7CFAE014F5F5F4F60915C020E94741FB4
:1047C000BC01892B09F448C08091E800877F809361
:1047D000E80089819A810E948920E3CF8038E1F541
:1047E0008091E800877F8093E80080915302809356
:1047F000F1004ACF811130C090915A02923060F599
:104800008091E800877F8093E800909353020E9494
:10481000182180915302882311F084E005C0809113
:10482000E30087FDFACF81E0809357020E94781E53
:1048300013C080915A02813079F481E0933009F0FD
:1048400080E0809355021092E9008091E800877F14
:104850008093E8000E9418218091E80083FF0AC03D
:104860008091E800877F8093E8008091EB00806270
:104870008093EB00AA960FB6F894DEBF0FBECDBFB3
:10488000DF91CF911F9108950895CF9380915702A2
:104890008823A1F0C091E900CF709091EC00892F9E
:1048A000817090FD80E8C82B1092E9008091E800AB
:1048B00083FD0E94FA22CF70C093E900CF91089542
:1048C0000E9467246894B1110C94F62408950E9404
:1048D000DB2488F09F5798F0B92F9927B751B0F093
:1048E000E1F0660F771F881F991F1AF0BA95C9F774
:1048F00014C0B13091F00E94F524B1E008950C94F9
:10490000F524672F782F8827B85F39F0B93FCCF3AB
:10491000869577956795B395D9F73EF490958095F0
:10492000709561957F4F8F4F9F4F0895E89409C010
:1049300097FB3EF490958095709561957F4F8F4FD2
:104940009F4F9923A9F0F92F96E9BB279395F695E8
:10495000879577956795B795F111F8CFFAF4BB0F66
:1049600011F460FF1BC06F5F7F4F8F4F9F4F16C0CA
:10497000882311F096E911C0772321F09EE8872F54
:10498000762F05C0662371F096E8862F70E060E010
:104990002AF09A95660F771F881FDAF7880F969589
:1049A000879597F9089557FD9058440F551F59F072
:1049B0005F3F71F04795880F97FB991F61F09F3F0C
:1049C00079F087950895121613061406551FF2CF35
:1049D0004695F1DF08C0161617061806991FF1CF85
:1049E00086957105610508940895E894BB276627AC
:1049F0007727CB0197F908950E940F250C94802505
:104A00000E94722538F00E94792520F0952311F03C
:104A10000C9469250C946F2511240C94F6240E94A3
:104A2000D32470F3959FC1F3950F50E0551F629FFB
:104A3000F001729FBB27F00DB11D639FAA27F00DF7
:104A4000B11DAA1F649F6627B00DA11D661F829F1E
:104A50002227B00DA11D621F739FB00DA11D621F03
:104A6000839FA00D611D221F749F3327A00D611D20
:104A7000231F849F600D211D822F762F6A2F112402
:104A80009F5750409AF0F1F088234AF0EE0FFF1F35
:104A9000BB1F661F771F881F91505040A9F79E3F8C
:104AA000510580F00C9469250C94F6245F3FE4F3E3
:104AB000983ED4F3869577956795B795F795E795E2
:104AC0009F5FC1F7FE2B880F911D9695879597F9EB
:104AD000089597F99F6780E870E060E008959FEF80
:104AE00080EC089500240A94161617061806090685
:104AF000089500240A941216130614060506089554
:104B0000092E0394000C11F4882352F0BB0F40F4DB
:104B1000BF2B11F460FF04C06F5F7F4F8F4F9F4F1B
:104B2000089597FB072E16F4009407D077FD09D05F
:104B30000E94AB2507FC05D03EF4909581959F4FD0
:104B40000895709561957F4F0895EE0FFF1F0590B2
:104B5000F491E02D0994AA1BBB1B51E107C0AA1FC9
:104B6000BB1FA617B70710F0A61BB70B881F991F0E
:104B70005A95A9F780959095BC01CD010895F999B2
:104B8000FECF92BD81BDF89A992780B50895A8E11E
:104B9000B0E042E050E00C94E725262FF999FECFD3
:104BA00092BD81BDF89A019700B4021639F01FBA80
:104BB00020BD0FB6F894FA9AF99A0FBE089501969F
:104BC000272F0E94CE250C94CD25DC01CB01FC01C2
:104BD000F999FECF06C0F2BDE1BDF89A319600B456
:104BE0000D9241505040B8F70895F894FFCF2E0829
:104BF0003A083E08420846084A084E085208560835
:104C00005A085E08620866086A086E087208760824
:104C10007A08EF0EEF0E470F470F8B0FA70F1F0FEE
:104C20001F0FB20F1F0F7A107A10E5101F0F1F0F02
:104C3000EE10232348232C2448232C247823992363
:064C40002C24EE23FA23F0
:104C4600FD012808140A321E801D101EED1DB61D1A
:104C5600831D013637606162636465666790919271
:104C6600939495303132333435404D3639170ECA68
:0E4C76000D940D5B0DEE0C070D200D390D0099
:00000001FF
